{
  "abi": [
    {
      "type": "constructor",
      "inputs": [],
      "stateMutability": "nonpayable"
    },
    {
      "type": "receive",
      "stateMutability": "payable"
    },
    {
      "type": "function",
      "name": "CREATION_FEE",
      "inputs": [],
      "outputs": [
        {
          "name": "",
          "type": "uint256",
          "internalType": "uint256"
        }
      ],
      "stateMutability": "view"
    },
    {
      "type": "function",
      "name": "createToken",
      "inputs": [
        {
          "name": "name",
          "type": "string",
          "internalType": "string"
        },
        {
          "name": "symbol",
          "type": "string",
          "internalType": "string"
        },
        {
          "name": "initialSupply",
          "type": "uint256",
          "internalType": "uint256"
        },
        {
          "name": "imageURI",
          "type": "string",
          "internalType": "string"
        }
      ],
      "outputs": [
        {
          "name": "",
          "type": "address",
          "internalType": "address"
        }
      ],
      "stateMutability": "payable"
    },
    {
      "type": "function",
      "name": "owner",
      "inputs": [],
      "outputs": [
        {
          "name": "",
          "type": "address",
          "internalType": "address"
        }
      ],
      "stateMutability": "view"
    },
    {
      "type": "function",
      "name": "renounceOwnership",
      "inputs": [],
      "outputs": [],
      "stateMutability": "nonpayable"
    },
    {
      "type": "function",
      "name": "transferOwnership",
      "inputs": [
        {
          "name": "newOwner",
          "type": "address",
          "internalType": "address"
        }
      ],
      "outputs": [],
      "stateMutability": "nonpayable"
    },
    {
      "type": "function",
      "name": "updateCreationFee",
      "inputs": [
        {
          "name": "newFee",
          "type": "uint256",
          "internalType": "uint256"
        }
      ],
      "outputs": [],
      "stateMutability": "nonpayable"
    },
    {
      "type": "function",
      "name": "withdrawFees",
      "inputs": [],
      "outputs": [],
      "stateMutability": "nonpayable"
    },
    {
      "type": "event",
      "name": "CreationFeeUpdated",
      "inputs": [
        {
          "name": "newFee",
          "type": "uint256",
          "indexed": false,
          "internalType": "uint256"
        }
      ],
      "anonymous": false
    },
    {
      "type": "event",
      "name": "FeesWithdrawn",
      "inputs": [
        {
          "name": "owner",
          "type": "address",
          "indexed": true,
          "internalType": "address"
        },
        {
          "name": "amount",
          "type": "uint256",
          "indexed": false,
          "internalType": "uint256"
        }
      ],
      "anonymous": false
    },
    {
      "type": "event",
      "name": "OwnershipTransferred",
      "inputs": [
        {
          "name": "previousOwner",
          "type": "address",
          "indexed": true,
          "internalType": "address"
        },
        {
          "name": "newOwner",
          "type": "address",
          "indexed": true,
          "internalType": "address"
        }
      ],
      "anonymous": false
    },
    {
      "type": "event",
      "name": "TokenCreated",
      "inputs": [
        {
          "name": "tokenAddress",
          "type": "address",
          "indexed": true,
          "internalType": "address"
        },
        {
          "name": "creator",
          "type": "address",
          "indexed": true,
          "internalType": "address"
        },
        {
          "name": "name",
          "type": "string",
          "indexed": false,
          "internalType": "string"
        },
        {
          "name": "initialSupply",
          "type": "uint256",
          "indexed": false,
          "internalType": "uint256"
        },
        {
          "name": "imageURI",
          "type": "string",
          "indexed": false,
          "internalType": "string"
        }
      ],
      "anonymous": false
    },
    {
      "type": "error",
      "name": "OwnableInvalidOwner",
      "inputs": [
        {
          "name": "owner",
          "type": "address",
          "internalType": "address"
        }
      ]
    },
    {
      "type": "error",
      "name": "OwnableUnauthorizedAccount",
      "inputs": [
        {
          "name": "account",
          "type": "address",
          "internalType": "address"
        }
      ]
    },
    {
      "type": "error",
      "name": "ReentrancyGuardReentrantCall",
      "inputs": []
    }
  ],
  "bytecode": {
    "object": "0x6080604052661550f7dca7000060025534801561001a575f5ffd5b50335f73ffffffffffffffffffffffffffffffffffffffff168173ffffffffffffffffffffffffffffffffffffffff160361008c575f6040517f1e4fbdf700000000000000000000000000000000000000000000000000000000815260040161008391906101a8565b60405180910390fd5b61009b816100a860201b60201c565b50600180819055506101c1565b5f5f5f9054906101000a900473ffffffffffffffffffffffffffffffffffffffff169050815f5f6101000a81548173ffffffffffffffffffffffffffffffffffffffff021916908373ffffffffffffffffffffffffffffffffffffffff1602179055508173ffffffffffffffffffffffffffffffffffffffff168173ffffffffffffffffffffffffffffffffffffffff167f8be0079c531659141344cd1fd0a4f28419497f9722a3daafe3b4186f6b6457e060405160405180910390a35050565b5f73ffffffffffffffffffffffffffffffffffffffff82169050919050565b5f61019282610169565b9050919050565b6101a281610188565b82525050565b5f6020820190506101bb5f830184610199565b92915050565b613004806101ce5f395ff3fe608060405260043610610073575f3560e01c80636fa237951161004d5780636fa23795146100ee578063715018a6146101165780638da5cb5b1461012c578063f2fde38b146101565761007a565b8063322caed11461007e578063476343ee146100ae57806349a2104d146100c45761007a565b3661007a57005b5f5ffd5b61009860048036038101906100939190610a9b565b61017e565b6040516100a59190610b92565b60405180910390f35b3480156100b9575f5ffd5b506100c2610470565b005b3480156100cf575f5ffd5b506100d86105d6565b6040516100e59190610bba565b60405180910390f35b3480156100f9575f5ffd5b50610114600480360381019061010f9190610bd3565b6105dc565b005b348015610121575f5ffd5b5061012a6106b2565b005b348015610137575f5ffd5b506101406106c5565b60405161014d9190610b92565b60405180910390f35b348015610161575f5ffd5b5061017c60048036038101906101779190610c28565b6106ec565b005b5f610187610770565b6002543410156101cc576040517f08c379a00000000000000000000000000000000000000000000000000000000081526004016101c390610cad565b60405180910390fd5b5f831161020e576040517f08c379a000000000000000000000000000000000000000000000000000000000815260040161020590610d3b565b60405180910390fd5b5f855111610251576040517f08c379a000000000000000000000000000000000000000000000000000000000815260040161024890610da3565b60405180910390fd5b5f845111610294576040517f08c379a000000000000000000000000000000000000000000000000000000000815260040161028b90610e0b565b60405180910390fd5b5f85858533866040516102a69061090e565b6102b4959493929190610e79565b604051809103905ff0801580156102cd573d5f5f3e3d5ffd5b5090505f6102d96106c5565b90505f73ffffffffffffffffffffffffffffffffffffffff168173ffffffffffffffffffffffffffffffffffffffff1603610349576040517f08c379a000000000000000000000000000000000000000000000000000000000815260040161034090610f29565b60405180910390fd5b5f8173ffffffffffffffffffffffffffffffffffffffff163460405161036e90610f74565b5f6040518083038185875af1925050503d805f81146103a8576040519150601f19603f3d011682016040523d82523d5f602084013e6103ad565b606091505b50509050806103f1576040517f08c379a00000000000000000000000000000000000000000000000000000000081526004016103e890610fd2565b60405180910390fd5b3373ffffffffffffffffffffffffffffffffffffffff168373ffffffffffffffffffffffffffffffffffffffff167f33859ff10933aba9a361010c3f945f42d94a37cb652615b5b55d882d1860512e8a898960405161045293929190610ff0565b60405180910390a38293505050506104686107b6565b949350505050565b610478610770565b6104806107bf565b5f4790505f81116104c6576040517f08c379a00000000000000000000000000000000000000000000000000000000081526004016104bd9061107d565b60405180910390fd5b5f6104cf6106c5565b73ffffffffffffffffffffffffffffffffffffffff16826040516104f290610f74565b5f6040518083038185875af1925050503d805f811461052c576040519150601f19603f3d011682016040523d82523d5f602084013e610531565b606091505b5050905080610575576040517f08c379a000000000000000000000000000000000000000000000000000000000815260040161056c906110e5565b60405180910390fd5b61057d6106c5565b73ffffffffffffffffffffffffffffffffffffffff167fc0819c13be868895eb93e40eaceb96de976442fa1d404e5c55f14bb65a8c489a836040516105c29190610bba565b60405180910390a250506105d46107b6565b565b60025481565b6105e46107bf565b5f8111610626576040517f08c379a000000000000000000000000000000000000000000000000000000000815260040161061d90611173565b60405180910390fd5b67016345785d8a0000811115610671576040517f08c379a0000000000000000000000000000000000000000000000000000000008152600401610668906111db565b60405180910390fd5b806002819055507f88a973fd5506071e0cf878b30898776c47d5250a7ee1e6ee0b36df3b03c7c16a816040516106a79190610bba565b60405180910390a150565b6106ba6107bf565b6106c35f610846565b565b5f5f5f9054906101000a900473ffffffffffffffffffffffffffffffffffffffff16905090565b6106f46107bf565b5f73ffffffffffffffffffffffffffffffffffffffff168173ffffffffffffffffffffffffffffffffffffffff1603610764575f6040517f1e4fbdf700000000000000000000000000000000000000000000000000000000815260040161075b9190610b92565b60405180910390fd5b61076d81610846565b50565b6002600154036107ac576040517f3ee5aeb500000000000000000000000000000000000000000000000000000000815260040160405180910390fd5b6002600181905550565b60018081905550565b6107c7610907565b73ffffffffffffffffffffffffffffffffffffffff166107e56106c5565b73ffffffffffffffffffffffffffffffffffffffff161461084457610808610907565b6040517f118cdaa700000000000000000000000000000000000000000000000000000000815260040161083b9190610b92565b60405180910390fd5b565b5f5f5f9054906101000a900473ffffffffffffffffffffffffffffffffffffffff169050815f5f6101000a81548173ffffffffffffffffffffffffffffffffffffffff021916908373ffffffffffffffffffffffffffffffffffffffff1602179055508173ffffffffffffffffffffffffffffffffffffffff168173ffffffffffffffffffffffffffffffffffffffff167f8be0079c531659141344cd1fd0a4f28419497f9722a3daafe3b4186f6b6457e060405160405180910390a35050565b5f33905090565b611dd5806111fa83390190565b5f604051905090565b5f5ffd5b5f5ffd5b5f5ffd5b5f5ffd5b5f601f19601f8301169050919050565b7f4e487b71000000000000000000000000000000000000000000000000000000005f52604160045260245ffd5b61097a82610934565b810181811067ffffffffffffffff8211171561099957610998610944565b5b80604052505050565b5f6109ab61091b565b90506109b78282610971565b919050565b5f67ffffffffffffffff8211156109d6576109d5610944565b5b6109df82610934565b9050602081019050919050565b828183375f83830152505050565b5f610a0c610a07846109bc565b6109a2565b905082815260208101848484011115610a2857610a27610930565b5b610a338482856109ec565b509392505050565b5f82601f830112610a4f57610a4e61092c565b5b8135610a5f8482602086016109fa565b91505092915050565b5f819050919050565b610a7a81610a68565b8114610a84575f5ffd5b50565b5f81359050610a9581610a71565b92915050565b5f5f5f5f60808587031215610ab357610ab2610924565b5b5f85013567ffffffffffffffff811115610ad057610acf610928565b5b610adc87828801610a3b565b945050602085013567ffffffffffffffff811115610afd57610afc610928565b5b610b0987828801610a3b565b9350506040610b1a87828801610a87565b925050606085013567ffffffffffffffff811115610b3b57610b3a610928565b5b610b4787828801610a3b565b91505092959194509250565b5f73ffffffffffffffffffffffffffffffffffffffff82169050919050565b5f610b7c82610b53565b9050919050565b610b8c81610b72565b82525050565b5f602082019050610ba55f830184610b83565b92915050565b610bb481610a68565b82525050565b5f602082019050610bcd5f830184610bab565b92915050565b5f60208284031215610be857610be7610924565b5b5f610bf584828501610a87565b91505092915050565b610c0781610b72565b8114610c11575f5ffd5b50565b5f81359050610c2281610bfe565b92915050565b5f60208284031215610c3d57610c3c610924565b5b5f610c4a84828501610c14565b91505092915050565b5f82825260208201905092915050565b7f496e73756666696369656e74206372656174696f6e20666565000000000000005f82015250565b5f610c97601983610c53565b9150610ca282610c63565b602082019050919050565b5f6020820190508181035f830152610cc481610c8b565b9050919050565b7f496e697469616c20737570706c79206d757374206265206772656174657220745f8201527f68616e207a65726f000000000000000000000000000000000000000000000000602082015250565b5f610d25602883610c53565b9150610d3082610ccb565b604082019050919050565b5f6020820190508181035f830152610d5281610d19565b9050919050565b7f4e616d652063616e6e6f7420626520656d7074790000000000000000000000005f82015250565b5f610d8d601483610c53565b9150610d9882610d59565b602082019050919050565b5f6020820190508181035f830152610dba81610d81565b9050919050565b7f53796d626f6c2063616e6e6f7420626520656d707479000000000000000000005f82015250565b5f610df5601683610c53565b9150610e0082610dc1565b602082019050919050565b5f6020820190508181035f830152610e2281610de9565b9050919050565b5f81519050919050565b8281835e5f83830152505050565b5f610e4b82610e29565b610e558185610c53565b9350610e65818560208601610e33565b610e6e81610934565b840191505092915050565b5f60a0820190508181035f830152610e918188610e41565b90508181036020830152610ea58187610e41565b9050610eb46040830186610bab565b610ec16060830185610b83565b8181036080830152610ed38184610e41565b90509695505050505050565b7f496e76616c6964206f776e6572206164647265737300000000000000000000005f82015250565b5f610f13601583610c53565b9150610f1e82610edf565b602082019050919050565b5f6020820190508181035f830152610f4081610f07565b9050919050565b5f81905092915050565b50565b5f610f5f5f83610f47565b9150610f6a82610f51565b5f82019050919050565b5f610f7e82610f54565b9150819050919050565b7f4661696c656420746f2073656e642066656500000000000000000000000000005f82015250565b5f610fbc601283610c53565b9150610fc782610f88565b602082019050919050565b5f6020820190508181035f830152610fe981610fb0565b9050919050565b5f6060820190508181035f8301526110088186610e41565b90506110176020830185610bab565b81810360408301526110298184610e41565b9050949350505050565b7f4e6f206665657320746f207769746864726177000000000000000000000000005f82015250565b5f611067601383610c53565b915061107282611033565b602082019050919050565b5f6020820190508181035f8301526110948161105b565b9050919050565b7f4661696c656420746f20776974686472617720666565730000000000000000005f82015250565b5f6110cf601783610c53565b91506110da8261109b565b602082019050919050565b5f6020820190508181035f8301526110fc816110c3565b9050919050565b7f4372656174696f6e20666565206d7573742062652067726561746572207468615f8201527f6e207a65726f0000000000000000000000000000000000000000000000000000602082015250565b5f61115d602683610c53565b915061116882611103565b604082019050919050565b5f6020820190508181035f83015261118a81611151565b9050919050565b7f4372656174696f6e2066656520746f6f206869676800000000000000000000005f82015250565b5f6111c5601583610c53565b91506111d082611191565b602082019050919050565b5f6020820190508181035f8301526111f2816111b9565b905091905056fe608060405234801561000f575f5ffd5b50604051611dd5380380611dd583398181016040528101906100319190610667565b81858581600390816100439190610939565b5080600490816100539190610939565b5050505f73ffffffffffffffffffffffffffffffffffffffff168173ffffffffffffffffffffffffffffffffffffffff16036100c6575f6040517f1e4fbdf70000000000000000000000000000000000000000000000000000000081526004016100bd9190610a17565b60405180910390fd5b6100d58161012460201b60201c565b5080600690816100e59190610939565b5061011a826100f86101e760201b60201c565b600a6101049190610b98565b8561010f9190610be2565b6101ef60201b60201c565b5050505050610cb3565b5f60055f9054906101000a900473ffffffffffffffffffffffffffffffffffffffff1690508160055f6101000a81548173ffffffffffffffffffffffffffffffffffffffff021916908373ffffffffffffffffffffffffffffffffffffffff1602179055508173ffffffffffffffffffffffffffffffffffffffff168173ffffffffffffffffffffffffffffffffffffffff167f8be0079c531659141344cd1fd0a4f28419497f9722a3daafe3b4186f6b6457e060405160405180910390a35050565b5f6012905090565b5f73ffffffffffffffffffffffffffffffffffffffff168273ffffffffffffffffffffffffffffffffffffffff160361025f575f6040517fec442f050000000000000000000000000000000000000000000000000000000081526004016102569190610a17565b60405180910390fd5b6102705f838361027460201b60201c565b5050565b5f73ffffffffffffffffffffffffffffffffffffffff168373ffffffffffffffffffffffffffffffffffffffff16036102c4578060025f8282546102b89190610c23565b92505081905550610392565b5f5f5f8573ffffffffffffffffffffffffffffffffffffffff1673ffffffffffffffffffffffffffffffffffffffff1681526020019081526020015f205490508181101561034d578381836040517fe450d38c00000000000000000000000000000000000000000000000000000000815260040161034493929190610c65565b60405180910390fd5b8181035f5f8673ffffffffffffffffffffffffffffffffffffffff1673ffffffffffffffffffffffffffffffffffffffff1681526020019081526020015f2081905550505b5f73ffffffffffffffffffffffffffffffffffffffff168273ffffffffffffffffffffffffffffffffffffffff16036103d9578060025f8282540392505081905550610423565b805f5f8473ffffffffffffffffffffffffffffffffffffffff1673ffffffffffffffffffffffffffffffffffffffff1681526020019081526020015f205f82825401925050819055505b8173ffffffffffffffffffffffffffffffffffffffff168373ffffffffffffffffffffffffffffffffffffffff167fddf252ad1be2c89b69c2b068fc378daa952ba7f163c4a11628f55a4df523b3ef836040516104809190610c9a565b60405180910390a3505050565b5f604051905090565b5f5ffd5b5f5ffd5b5f5ffd5b5f5ffd5b5f601f19601f8301169050919050565b7f4e487b71000000000000000000000000000000000000000000000000000000005f52604160045260245ffd5b6104ec826104a6565b810181811067ffffffffffffffff8211171561050b5761050a6104b6565b5b80604052505050565b5f61051d61048d565b905061052982826104e3565b919050565b5f67ffffffffffffffff821115610548576105476104b6565b5b610551826104a6565b9050602081019050919050565b8281835e5f83830152505050565b5f61057e6105798461052e565b610514565b90508281526020810184848401111561059a576105996104a2565b5b6105a584828561055e565b509392505050565b5f82601f8301126105c1576105c061049e565b5b81516105d184826020860161056c565b91505092915050565b5f819050919050565b6105ec816105da565b81146105f6575f5ffd5b50565b5f81519050610607816105e3565b92915050565b5f73ffffffffffffffffffffffffffffffffffffffff82169050919050565b5f6106368261060d565b9050919050565b6106468161062c565b8114610650575f5ffd5b50565b5f815190506106618161063d565b92915050565b5f5f5f5f5f60a086880312156106805761067f610496565b5b5f86015167ffffffffffffffff81111561069d5761069c61049a565b5b6106a9888289016105ad565b955050602086015167ffffffffffffffff8111156106ca576106c961049a565b5b6106d6888289016105ad565b94505060406106e7888289016105f9565b93505060606106f888828901610653565b925050608086015167ffffffffffffffff8111156107195761071861049a565b5b610725888289016105ad565b9150509295509295909350565b5f81519050919050565b7f4e487b71000000000000000000000000000000000000000000000000000000005f52602260045260245ffd5b5f600282049050600182168061078057607f821691505b6020821081036107935761079261073c565b5b50919050565b5f819050815f5260205f209050919050565b5f6020601f8301049050919050565b5f82821b905092915050565b5f600883026107f57fffffffffffffffffffffffffffffffffffffffffffffffffffffffffffffffff826107ba565b6107ff86836107ba565b95508019841693508086168417925050509392505050565b5f819050919050565b5f61083a610835610830846105da565b610817565b6105da565b9050919050565b5f819050919050565b61085383610820565b61086761085f82610841565b8484546107c6565b825550505050565b5f5f905090565b61087e61086f565b61088981848461084a565b505050565b5b818110156108ac576108a15f82610876565b60018101905061088f565b5050565b601f8211156108f1576108c281610799565b6108cb846107ab565b810160208510156108da578190505b6108ee6108e6856107ab565b83018261088e565b50505b505050565b5f82821c905092915050565b5f6109115f19846008026108f6565b1980831691505092915050565b5f6109298383610902565b9150826002028217905092915050565b61094282610732565b67ffffffffffffffff81111561095b5761095a6104b6565b5b6109658254610769565b6109708282856108b0565b5f60209050601f8311600181146109a1575f841561098f578287015190505b610999858261091e565b865550610a00565b601f1984166109af86610799565b5f5b828110156109d6578489015182556001820191506020850194506020810190506109b1565b868310156109f357848901516109ef601f891682610902565b8355505b6001600288020188555050505b505050505050565b610a118161062c565b82525050565b5f602082019050610a2a5f830184610a08565b92915050565b7f4e487b71000000000000000000000000000000000000000000000000000000005f52601160045260245ffd5b5f8160011c9050919050565b5f5f8291508390505b6001851115610ab257808604811115610a8e57610a8d610a30565b5b6001851615610a9d5780820291505b8081029050610aab85610a5d565b9450610a72565b94509492505050565b5f82610aca5760019050610b85565b81610ad7575f9050610b85565b8160018114610aed5760028114610af757610b26565b6001915050610b85565b60ff841115610b0957610b08610a30565b5b8360020a915084821115610b2057610b1f610a30565b5b50610b85565b5060208310610133831016604e8410600b8410161715610b5b5782820a905083811115610b5657610b55610a30565b5b610b85565b610b688484846001610a69565b92509050818404811115610b7f57610b7e610a30565b5b81810290505b9392505050565b5f60ff82169050919050565b5f610ba2826105da565b9150610bad83610b8c565b9250610bda7fffffffffffffffffffffffffffffffffffffffffffffffffffffffffffffffff8484610abb565b905092915050565b5f610bec826105da565b9150610bf7836105da565b9250828202610c05816105da565b91508282048414831517610c1c57610c1b610a30565b5b5092915050565b5f610c2d826105da565b9150610c38836105da565b9250828201905080821115610c5057610c4f610a30565b5b92915050565b610c5f816105da565b82525050565b5f606082019050610c785f830186610a08565b610c856020830185610c56565b610c926040830184610c56565b949350505050565b5f602082019050610cad5f830184610c56565b92915050565b61111580610cc05f395ff3fe608060405234801561000f575f5ffd5b50600436106100cd575f3560e01c806370a082311161008a57806395d89b411161006457806395d89b4114610201578063a9059cbb1461021f578063dd62ed3e1461024f578063f2fde38b1461027f576100cd565b806370a08231146101a9578063715018a6146101d95780638da5cb5b146101e3576100cd565b806306fdde03146100d1578063095ea7b3146100ef578063135d088d1461011f57806318160ddd1461013d57806323b872dd1461015b578063313ce5671461018b575b5f5ffd5b6100d961029b565b6040516100e69190610d8e565b60405180910390f35b61010960048036038101906101049190610e3f565b61032b565b6040516101169190610e97565b60405180910390f35b61012761034d565b6040516101349190610d8e565b60405180910390f35b6101456103d9565b6040516101529190610ebf565b60405180910390f35b61017560048036038101906101709190610ed8565b6103e2565b6040516101829190610e97565b60405180910390f35b610193610410565b6040516101a09190610f43565b60405180910390f35b6101c360048036038101906101be9190610f5c565b610418565b6040516101d09190610ebf565b60405180910390f35b6101e161045d565b005b6101eb610470565b6040516101f89190610f96565b60405180910390f35b610209610498565b6040516102169190610d8e565b60405180910390f35b61023960048036038101906102349190610e3f565b610528565b6040516102469190610e97565b60405180910390f35b61026960048036038101906102649190610faf565b61054a565b6040516102769190610ebf565b60405180910390f35b61029960048036038101906102949190610f5c565b6105cc565b005b6060600380546102aa9061101a565b80601f01602080910402602001604051908101604052809291908181526020018280546102d69061101a565b80156103215780601f106102f857610100808354040283529160200191610321565b820191905f5260205f20905b81548152906001019060200180831161030457829003601f168201915b5050505050905090565b5f5f610335610650565b9050610342818585610657565b600191505092915050565b6006805461035a9061101a565b80601f01602080910402602001604051908101604052809291908181526020018280546103869061101a565b80156103d15780601f106103a8576101008083540402835291602001916103d1565b820191905f5260205f20905b8154815290600101906020018083116103b457829003601f168201915b505050505081565b5f600254905090565b5f5f6103ec610650565b90506103f9858285610669565b6104048585856106fc565b60019150509392505050565b5f6012905090565b5f5f5f8373ffffffffffffffffffffffffffffffffffffffff1673ffffffffffffffffffffffffffffffffffffffff1681526020019081526020015f20549050919050565b6104656107ec565b61046e5f610873565b565b5f60055f9054906101000a900473ffffffffffffffffffffffffffffffffffffffff16905090565b6060600480546104a79061101a565b80601f01602080910402602001604051908101604052809291908181526020018280546104d39061101a565b801561051e5780601f106104f55761010080835404028352916020019161051e565b820191905f5260205f20905b81548152906001019060200180831161050157829003601f168201915b5050505050905090565b5f5f610532610650565b905061053f8185856106fc565b600191505092915050565b5f60015f8473ffffffffffffffffffffffffffffffffffffffff1673ffffffffffffffffffffffffffffffffffffffff1681526020019081526020015f205f8373ffffffffffffffffffffffffffffffffffffffff1673ffffffffffffffffffffffffffffffffffffffff1681526020019081526020015f2054905092915050565b6105d46107ec565b5f73ffffffffffffffffffffffffffffffffffffffff168173ffffffffffffffffffffffffffffffffffffffff1603610644575f6040517f1e4fbdf700000000000000000000000000000000000000000000000000000000815260040161063b9190610f96565b60405180910390fd5b61064d81610873565b50565b5f33905090565b6106648383836001610936565b505050565b5f610674848461054a565b90507fffffffffffffffffffffffffffffffffffffffffffffffffffffffffffffffff8110156106f657818110156106e7578281836040517ffb8f41b20000000000000000000000000000000000000000000000000000000081526004016106de9392919061104a565b60405180910390fd5b6106f584848484035f610936565b5b50505050565b5f73ffffffffffffffffffffffffffffffffffffffff168373ffffffffffffffffffffffffffffffffffffffff160361076c575f6040517f96c6fd1e0000000000000000000000000000000000000000000000000000000081526004016107639190610f96565b60405180910390fd5b5f73ffffffffffffffffffffffffffffffffffffffff168273ffffffffffffffffffffffffffffffffffffffff16036107dc575f6040517fec442f050000000000000000000000000000000000000000000000000000000081526004016107d39190610f96565b60405180910390fd5b6107e7838383610b05565b505050565b6107f4610650565b73ffffffffffffffffffffffffffffffffffffffff16610812610470565b73ffffffffffffffffffffffffffffffffffffffff161461087157610835610650565b6040517f118cdaa70000000000000000000000000000000000000000000000000000000081526004016108689190610f96565b60405180910390fd5b565b5f60055f9054906101000a900473ffffffffffffffffffffffffffffffffffffffff1690508160055f6101000a81548173ffffffffffffffffffffffffffffffffffffffff021916908373ffffffffffffffffffffffffffffffffffffffff1602179055508173ffffffffffffffffffffffffffffffffffffffff168173ffffffffffffffffffffffffffffffffffffffff167f8be0079c531659141344cd1fd0a4f28419497f9722a3daafe3b4186f6b6457e060405160405180910390a35050565b5f73ffffffffffffffffffffffffffffffffffffffff168473ffffffffffffffffffffffffffffffffffffffff16036109a6575f6040517fe602df0500000000000000000000000000000000000000000000000000000000815260040161099d9190610f96565b60405180910390fd5b5f73ffffffffffffffffffffffffffffffffffffffff168373ffffffffffffffffffffffffffffffffffffffff1603610a16575f6040517f94280d62000000000000000000000000000000000000000000000000000000008152600401610a0d9190610f96565b60405180910390fd5b8160015f8673ffffffffffffffffffffffffffffffffffffffff1673ffffffffffffffffffffffffffffffffffffffff1681526020019081526020015f205f8573ffffffffffffffffffffffffffffffffffffffff1673ffffffffffffffffffffffffffffffffffffffff1681526020019081526020015f20819055508015610aff578273ffffffffffffffffffffffffffffffffffffffff168473ffffffffffffffffffffffffffffffffffffffff167f8c5be1e5ebec7d5bd14f71427d1e84f3dd0314c0f7b2291e5b200ac8c7c3b92584604051610af69190610ebf565b60405180910390a35b50505050565b5f73ffffffffffffffffffffffffffffffffffffffff168373ffffffffffffffffffffffffffffffffffffffff1603610b55578060025f828254610b4991906110ac565b92505081905550610c23565b5f5f5f8573ffffffffffffffffffffffffffffffffffffffff1673ffffffffffffffffffffffffffffffffffffffff1681526020019081526020015f2054905081811015610bde578381836040517fe450d38c000000000000000000000000000000000000000000000000000000008152600401610bd59392919061104a565b60405180910390fd5b8181035f5f8673ffffffffffffffffffffffffffffffffffffffff1673ffffffffffffffffffffffffffffffffffffffff1681526020019081526020015f2081905550505b5f73ffffffffffffffffffffffffffffffffffffffff168273ffffffffffffffffffffffffffffffffffffffff1603610c6a578060025f8282540392505081905550610cb4565b805f5f8473ffffffffffffffffffffffffffffffffffffffff1673ffffffffffffffffffffffffffffffffffffffff1681526020019081526020015f205f82825401925050819055505b8173ffffffffffffffffffffffffffffffffffffffff168373ffffffffffffffffffffffffffffffffffffffff167fddf252ad1be2c89b69c2b068fc378daa952ba7f163c4a11628f55a4df523b3ef83604051610d119190610ebf565b60405180910390a3505050565b5f81519050919050565b5f82825260208201905092915050565b8281835e5f83830152505050565b5f601f19601f8301169050919050565b5f610d6082610d1e565b610d6a8185610d28565b9350610d7a818560208601610d38565b610d8381610d46565b840191505092915050565b5f6020820190508181035f830152610da68184610d56565b905092915050565b5f5ffd5b5f73ffffffffffffffffffffffffffffffffffffffff82169050919050565b5f610ddb82610db2565b9050919050565b610deb81610dd1565b8114610df5575f5ffd5b50565b5f81359050610e0681610de2565b92915050565b5f819050919050565b610e1e81610e0c565b8114610e28575f5ffd5b50565b5f81359050610e3981610e15565b92915050565b5f5f60408385031215610e5557610e54610dae565b5b5f610e6285828601610df8565b9250506020610e7385828601610e2b565b9150509250929050565b5f8115159050919050565b610e9181610e7d565b82525050565b5f602082019050610eaa5f830184610e88565b92915050565b610eb981610e0c565b82525050565b5f602082019050610ed25f830184610eb0565b92915050565b5f5f5f60608486031215610eef57610eee610dae565b5b5f610efc86828701610df8565b9350506020610f0d86828701610df8565b9250506040610f1e86828701610e2b565b9150509250925092565b5f60ff82169050919050565b610f3d81610f28565b82525050565b5f602082019050610f565f830184610f34565b92915050565b5f60208284031215610f7157610f70610dae565b5b5f610f7e84828501610df8565b91505092915050565b610f9081610dd1565b82525050565b5f602082019050610fa95f830184610f87565b92915050565b5f5f60408385031215610fc557610fc4610dae565b5b5f610fd285828601610df8565b9250506020610fe385828601610df8565b9150509250929050565b7f4e487b71000000000000000000000000000000000000000000000000000000005f52602260045260245ffd5b5f600282049050600182168061103157607f821691505b60208210810361104457611043610fed565b5b50919050565b5f60608201905061105d5f830186610f87565b61106a6020830185610eb0565b6110776040830184610eb0565b949350505050565b7f4e487b71000000000000000000000000000000000000000000000000000000005f52601160045260245ffd5b5f6110b682610e0c565b91506110c183610e0c565b92508282019050808211156110d9576110d861107f565b5b9291505056fea2646970667358221220cbc8b87dbeb13223bb53cb00a99326d1b86f08c2a9fcdc95ecbf96c7bc6bf89264736f6c634300081c0033a2646970667358221220cd7cd2c64c47d736357f00c2c97810ca6d1700c47522b3c63ff51448125aee6364736f6c634300081c0033",
    "linkReferences": {}
  },
  "methodIdentifiers": {
    "CREATION_FEE()": "49a2104d",
    "createToken(string,string,uint256,string)": "322caed1",
    "owner()": "8da5cb5b",
    "renounceOwnership()": "715018a6",
    "transferOwnership(address)": "f2fde38b",
    "updateCreationFee(uint256)": "6fa23795",
    "withdrawFees()": "476343ee"
  },
  "id": 23
}